:100000000A128A11E62FFF1B0D2883137F1883170E
:100010000008840A0319FF0A080000308A00040857
:10002000840A82070034013400340A340034643412
:100030000034E83403341034273420342534753444
:100040002034203400344134443443343A340034CE
:0600500025347534003474
:1000940064008001840A04060319003404064B2812
:1000A40083160313111483128C1D59285A285528BA
:1000B4008C11080083160313111583128C1D6328F9
:1000C40064285F288C11080083160313911483128B
:1000D4008C1D6D286E2869288C1108008316031363
:1000E4009112111683128C1D7828792874288C118A
:1000F4000800831603139116111683128C1D83288E
:1001040084287F288C110800831603139115831209
:100114008C1D8D288E2889288C1113080800003026
:100124000A128A11DF200A128A1101300A128A1176
:10013400DF200A128A110800F000700883120313EA
:1001440093008C1DA628A728A3288C1183160313BB
:100154001108080030343034303430343034303422
:1001640000343034303430343034303430340034CB
:10017400F100F0013A3071020318C128C228CA28DC
:1001840030307102031CC728C828CA28F001F00ABD
:10019400700C08007E088A007F0882000A128A1107
:1001A400CC200A128A118000840A04087D060319EF
:1001B4000034FF0A0319FE0AD028F3008312031344
:1001C400081173080A128A1133210A128A11831240
:1001D400031388150B30F2006230F100F10BF028A4
:1001E400F20BF02800008312031388110800831611
:1001F40003178801890183160313860188010730D8
:10020400890083120313860188018901831603136D
:100214000F178F160F1680300A128A1114210A1232
:100224008A110800F0008316031387150716700857
:10023400940028308312031394008316031391014E
:1002440080307006031D272928292B291330930099
:1002540032297008031D2F29302932291D309300BB
:100264000800F000701C372938293C298312031335
:1002740008163F29831203130812F01C422943294C
:100284004529881646298812701D49294A294C296E
:1002940008174D290813F01D50295129532988178F
:1002A400542988130800F401F501701C5A295B29AC
:1002B40061297208F4070318F50A7308F507013079
:1002C4000310F20DF30DFF3E031D622901300310EC
:1002D400F10CF00CFF3E031D692970087104031D25
:1002E4007429752957297508F1007408F00008006D
:1002F4000A128A1152200A128A11D0300A128A1163
:100304009E200A128A1104300A128A119E200A12AF
:100314008A118312031324080A128A119E200A12D6
:100324008A118312031323080A128A119E200A12C7
:100334008A118312031322080A128A119E200A12B8
:100344008A110A128A115C200A128A1108000A1200
:100354008A1152200A128A11D0300A128A119E2060
:100364000A128A1100300A128A119E200A128A1176
:100374008312031327080A128A119E200A128A1173
:100384008312031326080A128A119E200A128A1164
:100394008312031325080A128A119E200A128A1155
:1003A4000A128A115C200A128A110800F4007408E7
:1003B4000F39F2007408F039F3008312031308159F
:1003C4007308F10004300310F10CFF3E031DE5290E
:1003D40071080A128A1133210A128A118312031333
:1003E40088151A30F100F10BF5290000831203136C
:1003F400881172080A128A1133210A128A1183128F
:10040400031388151A30F100F10B062A0000831239
:10041400031388110800F1010F30F0007108583EF1
:1004240084007008831380050130F0007008F10720
:1004340007307102031C1F2A202A0E2A8312031379
:100444005808F00004300310F00DFF3E031D252A68
:1004540059087007A4005A08F00004300310F00D86
:10046400FF3E031D302A5B087007A3005C08F00000
:1004740004300310F00DFF3E031D3B2A5D08700796
:10048400A2000800F1010F30F0007108513E840011
:100494007008831380050130F0007008F1070730FD
:1004A4007102031C562A572A452A83120313510842
:1004B400F00004300310F00DFF3E031D5C2A5208C7
:1004C4007007A5005308F00004300310F00DFF3E40
:1004D400031D672A54087007A6005508F00004306D
:1004E4000310F00DFF3E031D722A56087007A70083
:1004F4000800780879040319802A812AB02AFD01AA
:10050400FD0A8F2A01300310F80DF90DFF3E031D7B
:10051400852A0130FC007C08FD07F91F922A932AE2
:10052400842A79087B02031D992A78087A02031C1D
:100534009C2A9D2AA32A7808FA027908031CFB0343
:10054400FB0201300310F90CF80CFF3E031DA42A32
:100554000130FD02031DAF2AB02A932A7B08F9005B
:100564007A08F8000800FA01FB01DA2A7A0875070C
:10057400F8007608F7000318F70AFA1FC22AF703EF
:100584007708F900790883120313FF0078088400C0
:100594000A128A1103200A128A110A128A11D82116
:1005A4000A128A110130FA070318FB0A0030FB070C
:1005B4007A087507F8007608F7000318F70AFA1F97
:1005C400E42AF7037708F900790883120313FF007C
:1005D400780884000A128A1103200A128A11003A48
:1005E400031DF52AF62AB82A0800F501F601700859
:1005F40071040319FE2AFF2A362BF701F70A0D2B83
:1006040001300310F00DF10DFF3E031D032B0130EB
:10061400F4007408F707F11F102B112B022B013083
:100624000310F50DF60DFF3E031D122B7108730226
:10063400031D1E2B70087202031C212B222B292B55
:100644007008F2027108031CF303F30275140130FD
:100654000310F10CF00CFF3E031D2A2B0130F702AE
:10066400031D352B362B112B7608F1007508F0008D
:1006740008000A128A1152200A128A11D0300A1272
:100684008A119E200A128A1104300A128A119E20AD
:100694000A128A110A128A1166200A128A11D130AA
:1006A4000A128A119E200A128A110A128A118620BD
:1006B4000A128A1183120313A4000A128A117020E9
:1006C4000A128A110A128A1186200A128A118312C6
:1006D4000313A3000A128A1170200A128A110A1243
:1006E4008A1186200A128A1183120313A2000A12A5
:1006F4008A117B200A128A110A128A115C200A12BA
:100704008A1108000A128A1152200A128A11D03062
:100714000A128A119E200A128A1100300A128A11C2
:100724009E200A128A110A128A1166200A128A115C
:10073400D1300A128A119E200A128A110A128A11D1
:1007440086200A128A1183120313A7000A128A113F
:1007540070200A128A110A128A1186200A128A113A
:1007640083120313A6000A128A1170200A128A1136
:100774000A128A1186200A128A1183120313A50011
:100784000A128A117B200A128A110A128A115C2029
:100794000A128A110800831203132408F500043096
:1007A4000310F50CFF3E031DD22B7508303E0A12D0
:1007B4008A11D8210A128A118312031324080F39CB
:1007C400303E0A128A11D8210A128A112F300A12D5
:1007D4008A11D8210A128A11831203132308F500FF
:1007E40004300310F50CFF3E031DF32B7508303E57
:1007F4000A128A11D8210A128A11831203132308B8
:100804000F39303E0A128A11D8210A128A112F3068
:100814000A128A11D8210A128A1183120313220898
:10082400F50004300310F50CFF3E031D142C75086D
:10083400303E0A128A11D8210A128A118312031334
:1008440022080F39303E0A128A11D8210A128A115D
:100854000800831203132508F50004300310F50C77
:10086400FF3E031D302C7508303E0A128A11D82130
:100874000A128A118312031325080F39303E0A1213
:100884008A11D8210A128A113A300A128A11D821FF
:100894000A128A11831203132608F5000430031088
:1008A400F50CFF3E031D512C7508303E0A128A11C7
:1008B400D8210A128A118312031326080F39303EF5
:1008C4000A128A11D8210A128A113A300A128A119C
:1008D400D8210A128A11831203132708F500043061
:1008E4000310F50CFF3E031D722C7508303E0A12EE
:1008F4008A11D8210A128A118312031327080F3987
:10090400303E0A128A11D8210A128A110800831271
:10091400031320082104031D902C912CE82C091C9E
:10092400942C952CDE2C2008013EA00021080318ED
:10093400013E003EA1000918A02CA12C9D2C3430AE
:1009440083120313CB00F130CA00CA0BA72CCB0BC4
:10095400A72C5D300A128A114F250A128A117708D2
:1009640083120313CD007608CC000130CC070318A2
:10097400CD0A0030CD071630BD004D08BF004C082D
:10098400BE005D300A128A1157260A128A110A1211
:100994008A110D220A128A110A128A117A210A1264
:1009A4008A110A128A113B230A128A110A128A1125
:1009B400CD230A128A11E32C0A128A110D220A127B
:1009C4008A110A128A117A210A128A1108008316DE
:1009D40003130811881108128812081388130030B1
:1009E4000A128A1133210A128A112730F500F530D0
:1009F400F400F40BFB2CF50BFB2C03300A128A11C8
:100A0400DF200A128A110B30F5006230F400F40B77
:100A1400092DF50B092D000003300A128A11DF207D
:100A24000A128A114230F400F40B162D0000033030
:100A34000A128A11DF200A128A1102300A128A115C
:100A4400DF200A128A1102300A128A11DF200A12E8
:100A54008A1108300A128A11DF200A128A11003022
:100A64000A128A11DF200A128A110C300A128A1122
:100A7400DF200A128A1100300A128A11DF200A12BA
:100A84008A1106300A128A11DF200A128A110A1208
:100A94008A1191200A128A110800FD00552D013097
:100AA400F8007808FD077D088400203083130006D1
:100AB40003195D2D5E2D512D7D088400093000063B
:100AC4000319652D662D512DFB01FC01FA017D08EA
:100AD40084002D300006031D702D712D7A2D0130F8
:100AE400F8007808FA070130F8007808FD07A82D07
:100AF4007D0884002B300006031D812D822DA82D36
:100B04000130F8007808FD07A82D7D0884007C08D2
:100B1400F1007B08F0000A30F2000030F3000A1202
:100B24008A1155210A128A11831300087007F800EC
:100B34000030031801307107F9007808D03EFB003B
:100B440079080318013EFF3EFC00822D7D088400D5
:100B540000080A128A11BA200A128A110318B32D46
:100B6400B42D872D7A080319B82DB92DC52D7B090D
:100B7400F8007C09F900F80A0319F90A7808F60064
:100B84007908F700C92D7C08F7007B08F6000800F7
:100B9400F6007603031DCF2DD02DED2D74087F3E76
:100BA400F9007908F50004300310F50CFF3E031D2D
:100BB400D62D7508F70079080F39F80077080A125E
:100BC4008A11DF200A128A1178080A128A11DF209A
:100BD4000A128A11562E02307606031DF22DF32DC9
:100BE400102E7408BF3EF9007908F5000430031094
:100BF400F50CFF3E031DF92D7508F70079080F3930
:100C0400F80077080A128A11DF200A128A1178087C
:100C14000A128A11DF200A128A11562E0330760630
:100C2400031D152E162E332E7408933EF9007908F1
:100C3400F50004300310F50CFF3E031D1C2E75084F
:100C4400F70079080F39F80077080A128A11DF20B3
:100C54000A128A1178080A128A11DF200A128A11EC
:100C6400562E04307606031D382E392E562E74085F
:100C7400D33EF9007908F50004300310F50CFF3E6B
:100C8400031D3F2E7508F70079080F39F80077081F
:100C94000A128A11DF200A128A1178080A128A11AC
:100CA400DF200A128A11562E080083120313C8008B
:100CB4003E30C400032F253049060319622E632EEB
:100CC4006D2E480884004908831380000130C00059
:100CD4004008C807032FC301742EC030C000400869
:100CE400C3048E2E0130BD07FF303D0784000A1275
:100CF4008A110D200A128A11C900C000C1014108DD
:100D0400003A0319862E032F4008003A0319132FC3
:100D1400753A03196F2E032F4408840083130008C7
:100D2400C500840A0008C6000230C0004008C40799
:100D3400C901C90A4908C0004007013E84000A12DB
:100D44008A110D200A128A11C1000A128A110D207B
:100D54000A128A11C20042084602031DB32E41083A
:100D640045020318B62EB72EB82EC22E0130C0008D
:100D74004008C90705304906031DC12EC22E9C2E0A
:100D84004908C700FA2E0A30F8000030F900470875
:100D9400C0004007013E84000A128A110D200A1285
:100DA4008A11F0000A128A110D200A128A11F10028
:100DB4004608F3004508F2000A128A11F7220A12C3
:100DC4008A117108FB007008FA000A128A117B224A
:100DD4000A128A117808303E83120313C9004808A6
:100DE40084004908831380000130C0004008C8070C
:100DF400FF30C0004008C707470A031D022F032F16
:100E0400C52E0130BD07FF303D0784000A128A1148
:100E14000D200A128A11C9004908031D122F132F2D
:100E24005D2E480884008313800108000A128A1189
:100E3400F9200A128A110A128A11E9240A128A1163
:100E44000A128A1191200A128A11F401F40A01305B
:100E54000A128A11CA250A128A111130F50080304B
:100E6400F6000A128A11B5220A128A11033083127B
:100E74000313CF009730CE00CE0B3E2FCF0B3E2F67
:100E84000630831603139F000A128A1144220A12A1
:100E94008A110A128A11A9210A128A110A128A11C4
:100EA4000D220A128A110A128A117A210A128A114F
:100EB4000A128A1152200A128A1151300A128A1116
:100EC4009E200A128A110A128A1186200A128A1195
:100ED40083120313A800280886000A128A115C20D2
:100EE4000A128A11823083120313CF00DD30CE0040
:100EF400CE0B7A2FCF0B7A2FF401F40A02300A12A8
:100F04008A11CA250A128A110B3083120313BD00F9
:100F14002808CE00CF014E08BE004F08BF0029307C
:100F24000A128A1157260A128A112930F500003054
:100F3400F6000A128A11B5220A128A1103308312AA
:100F44000313CF009730CE00CE0BA62FCF0BA62FC6
:100F54000730F40001300A128A11CA250A128A11D4
:100F64000A128A1184230A128A110A128A112B2462
:100F74000A128A110730F40002300A128A11CA25B3
:100F84000A128A110A128A113B230A128A110A12BE
:100F94008A11CD230A128A11023083120313D0005E
:100FA4000430CF00B930CE00CE0BD62FCF0BD62FC6
:100FB400D00BD62FDD2F0A128A1189240A128A1126
:100FC4005A2F0A128A11002883135F30FD00003063
:100FD400FE00AC30FF00513084000A128A11D02088
:100FE4000A128A11203084003D300A128A114A20E4
:0C0FF4000A128A1183010A128A11182FB8
:08400000FF3FFF3FFF3FFF3FC0
:04400E00D420FF3F7C
:00000001FF
