:060000000A128A110C280F
:10000800FE00030EF5000A08F6000A128A111328EA
:100018000A128A110F2883010A128A1144288312AE
:1000280003138C1D182819283D280A128A11B2209A
:100038000A128A1170087104031923282428292810
:100048000A128A110E210A128A110A128A11C8206C
:100058000A128A1170037104031D332834283A28C0
:1000680077080A128A11F0200A128A1183120313E0
:100078008C1176088A00750E8300FE0E7E0E09002C
:100088000A128A11DD200A128A1140300A128A11D6
:1000980003210A128A1100300A128A116B200A12EF
:1000A8008A11831203132008F70006308312031302
:1000B800A7001330A600AD30A500A50B6128A60B3C
:1000C8006128A70B61284F280A128A110C2883126D
:1000D8000313A4000E302402031C73287428772805
:1000E800A001A101912840309F002408A2000130FE
:1000F8000310A20DFF3E031D7C280310220D9F0054
:100108001F149F149F1889288A2886281E08A20071
:10011800A3012208A0002308A100080083120313EA
:10012800A0008316031387150716803094008312E6
:100138000313200883160313930036308312031326
:10014800940001308316031391008B170B17831249
:1001580003138C11831603138C15080083120313E1
:100168001412F401F40A141BBA28BB28C028941BE3
:10017800BE28BF28C028F4017408F200F3017208F1
:10018800F0007308F1000800F40183160313941AB1
:10019800CE28CF28D528141DD228D328D528F40155
:1001A800F40A7408F200F3017208F0007308F10011
:1001B80008008316031708148901831603138601A0
:1001C8008801831203138601880150300A128A11AC
:1001D80092200A128A110800F000831203131308F0
:1001E8008316031314107008831203139300141654
:1001F80083160313141801290229FC280800831206
:100208000313A000831603139F018312031320080E
:100218009F00080083120313141213081413941375
:06022800141694110800F9
:08400000FF3FFF3FFF3FFF3FC0
:04400E00D420FF3F7C
:00000001FF
